:020000040800F2
:1000000098470024AD020008A55100081D4E0008C5
:10001000A1510008C1040008058600080000000086
:10002000000000000000000000000000397000081F
:10003000C5040008000000001B5400083B700008C5
:10004000CB020008CB020008CB020008CB0200085C
:10005000CB020008CB020008CB020008CB0200084C
:10006000CB020008CB020008CB020008CB0200083C
:10007000CB020008CB020008CB020008CB0200082C
:10008000CB020008CB020008CB020008CB0200081C
:10009000CB020008CB020008CB020008CB0200080C
:1000A000CB020008CB020008CB020008CB020008FC
:1000B000CB020008CB020008CB020008CB020008EC
:1000C000CB020008CB020008CB020008CB020008DC
:1000D000CB020008CB020008CB020008CB020008CC
:1000E000CB020008CB02000800000000CB02000891
:1000F000CB020008CB020008CB020008CB020008AC
:10010000CB020008CB020008CB020008CB0200089B
:10011000CB020008CB020008CB020008CB0200088B
:10012000CB020008CB020008CB020008CB0200087B
:10013000CB020008CB020008CB020008CB0200086B
:1001400000000000000000000000000000000000AF
:10015000CB020008CB020008CB020008CB0200084B
:10016000CB020008CB020008CB020008CB0200083B
:10017000CB020008CB020008CB020008CB0200082B
:10018000CB020008CB020008CB020008CB0200081B
:10019000CB020008CB020008CB020008CB0200080B
:1001A000CB020008CB020008CB020008CB020008FB
:1001B00001570008CB020008CB020008CB02000860
:1001C000CB020008CB020008CB020008CB020008DB
:1001D000CB020008A9510008CB020008CB0200089E
:1001E000CB020008CB020008CB020008CB020008BB
:1001F000CB020008CB020008CB020008CB020008AB
:10020000CB020008CB020008CB020008CB0200089A
:10021000CB020008CB020008CB020008CB0200088A
:10022000CB020008CB020008214E000800000000AD
:10023000CB020008CB02000800000000CB0200083F
:10024000CB020008CB020008CB020008CB0200085A
:10025000CB020008CB020008CB020008CB0200084A
:10026000CB020008CB020008CB020008CB0200083A
:10027000CB020008CB020008CB02000800000000FF
:10028000CB020008CB020008CB02000800000000EF
:1002900000000000CB020008DFF80CD000F0A8F846
:1002A000004800476DB4000898470024074880477D
:1002B0000748804707480047FEE7FEE7FEE7FEE7FE
:1002C000FEE7FEE7FEE7FEE7FEE7FEE7F9040008CB
:1002D00015710008990200082DE9F05F054600201D
:1002E00092469B4688460646814640241BE02846A7
:1002F00041464746224600F06AF853465A46C01A1D
:10030000914110D311461846224600F051F82D1A9B
:1003100067EB01084F4622460120002100F048F813
:1003200017EB00094E41201EA4F10104DFDC484612
:1003300031462A464346BDE8F09F40EA01039B0749
:1003400003D009E008C9121F08C0042AFAD203E04A
:1003500011F8013B00F8013B521EF9D27047D2B2AE
:1003600001E000F8012B491EFBD270470022F6E79E
:1003700010B513460A4604461946FFF7F0FF20461B
:1003800010BDCAB2401E10F8011F8A4202D00029D7
:10039000F9D10020704730B504460020034600E044
:1003A0005B1C934203D2E05CCD5C401BF8D030BDB7
:1003B000202A04DB203A00FA02F100207047914025
:1003C000C2F1200320FA03F3194390407047202A1A
:1003D00004DB203A21FA02F00021704721FA02F3EF
:1003E000D040C2F1200291400843194670470000F6
:1003F000064C074D06E0E06840F0010394E8070072
:1004000098471034AC42F6D3FFF74AFF4CF100088E
:100410007CF1000870B58C1810F8015B15F007032B
:1004200001D110F8013B2A1106D110F8012B03E08D
:1004300010F8016B01F8016B5B1EF9D12B0705D495
:100440000023521E0DD401F8013BFAE710F8013BDE
:10045000CB1A921C03E013F8015B01F8015B521EFA
:10046000F9D5A142D8D3002070BD2DE9FF4704463D
:100470000D4616461F46DDE90C8900F073FE01208B
:100480008DF800000196F8B28DF8080003208DF871
:100490000B008DF80F808DF80E9000208DF80D0068
:1004A0008DF801408DF80A508DF809008DF80C0088
:1004B000684600F029FE042000F06AFEBDE8FF87D0
:1004C00000BFFEE7704730B502460023002009E078
:1004D000135C0C1A641E145D14540C1A641E13551C
:1004E000441CE0B201EBD175B0EB650FF0DB30BD21
:1004F00072B600BFFEE700000748006840F0020047
:100500000549086000BF04480838006800F400503E
:100510000028F8D0704700000C48025810B501F0D0
:1005200001037BB1134BDB6823F4E663114CE360FA
:1005300042F0040343EA002343F08003E4682343CA
:100540000C4CE36001F00203022B12D10A4B1B6832
:1005500023F4E663074CC4F80C3142F0040343EA89
:10056000002343F08003D4F80C412343014CC4F82A
:100570000C3110BD002000520C21005201F003028A
:10058000032A1BD1234AD26822F03002214BDA60C1
:10059000214A126822F03002C3F80C211A46D268B0
:1005A0000243DA601A46D2F80C210243C3F80C2148
:1005B0001A46926942F010029A6129E001F00102A4
:1005C00072B1144AD26822F03002124BDA601A4635
:1005D000D2680243DA601A46D26842F08802DA60D2
:1005E00001F00202022A13D10B4A126822F03002F3
:1005F000084BC3F80C211A46D2F80C210243C3F869
:100600000C211A46D2F80C2142F08802C3F80C21C2
:1006100070470000002000520C2100522DE9F041EB
:1006200007460E460424002500F026FB8046022ED5
:1006300000D1344C0BE0781C48B100F01DFBA0EB5E
:100640000800B84200D817B90320BDE8F0812E4851
:100650002040A04208D12D4800692040A04201D18D
:1006600001200DE000200BE02948006824F0004143
:10067000084024F00041884201D1012000E0002020
:100680000028D8D1012E05D120480069214900EA6F
:10069000010505E01E4800681F49084040F000457C
:1006A00025F0004090B11D48806928431B498861AE
:1006B00015482840A84202D11448456104E025F0BD
:1006C00000401349091D08600120BEE7012E0AD130
:1006D0000E48006900F48030B0F5803F0FD130043F
:1006E0000A4948610BE00A48006800F48030B0F520
:1006F000803F04D14FF480300549091D0860002077
:10070000A3E70000040000800F00EF1F002000524C
:10071000102100520000EE170000EE97D4060024CE
:1007200070B5044600F0A8FA06462546681C10B1CC
:1007300004480078054400BF00F09EFA801BA842E0
:10074000FAD370BD080000242DE9F04104460E469E
:10075000002700BF4848007D012802D10220BDE8E3
:10076000F08101204449087500BF0020886120798C
:1007700000F0010030B101214CF25030FFF74EFF84
:1007800000B10127207900F00200022806D10221E1
:100790004CF25030FFF742FF00B10127002F63D128
:1007A0002068012828D161682069FFF7E7FE2079D9
:1007B00000F0010060B101214CF25030FFF72EFF34
:1007C00000B101272D48C06820F008002B49C860FF
:1007D000207900F00200022846D102214CF250306C
:1007E000FFF71CFF00B101272548006820F0080032
:1007F0002249C1F80C0137E04FF0FF303060A568A6
:100800002CE0284622696168FFF788FE207900F015
:10081000010060B101214CF25030FFF7FFFE0746A6
:100820001648C06840F2047188431449C8602079B2
:1008300000F0020002280DD102214CF25030FFF7E7
:10084000EDFE07460E48006840F2047188430B49EC
:10085000C1F80C010FB1356005E06D1CD4E9021040
:100860000844A842CDD800BF00BF00200249087547
:1008700000BF384673E70000D40600240020005271
:100880000C2100520E48C06840F001000C49C860BD
:100890000846C06800F0010008B901207047094807
:1008A000006840F001000649C1F80C0105480068E5
:1008B00000F0010008B90120F0E70020EEE7000099
:1008C000002000520C2100522DE9F05F83460C46B7
:1008D0001746A046B9464FF0080A00BF4248007DBF
:1008E000012802D10220BDE8F09F01203E49087591
:1008F00000BFB4F1006F04D3B4F1016F01D2012540
:1009000009E0B4F1016F04D3B4F1026F01D2022502
:1009100001E00120E7E700203349886129464CF2D5
:100920005030FFF77BFE0646002E55D1012D06D133
:100930002E48C06840F002002C49C86006E02C48F0
:10094000006840F002002949C1F80C0100BF00BF57
:1009500000BFBFF36F8F00BF00BF00BF00BF00BF6D
:1009600000BFBFF34F8F00BF00BF00BF00BFD9F86B
:100970000000C8F8000008F1040809F10409AAF110
:10098000010000F0FF0ABAF1000FF0D100BF00BF74
:1009900000BFBFF36F8F00BF00BF00BF00BF00BF2D
:1009A00000BFBFF34F8F00BF00BF00BF29464CF20E
:1009B0005030FFF733FE0646012D06D10B48C068C4
:1009C00020F002000949C86006E00948006820F0EC
:1009D00002000649C1F80C0100BF00200249087559
:1009E00000BF30467FE70000D406002400200052FC
:1009F0000C2100521348C06800F0010058B11248A1
:100A000010494860114848600846C06800F001007D
:100A100008B1012070470E48006800F0010070B175
:100A200009480B490839086008480649C1F804011B
:100A30000748006800F0010008B10120EAE7002043
:100A4000E8E700000020005223016745AB89EFCDA5
:100A50000C210052F8B502460B4600216F4DD7E03D
:100A600001278F401E6806EA0704002C72D01E7909
:100A700006F00306012E04D01E7906F00306022EAE
:100A800013D190684F000326BE40B0434F00DE688C
:100A9000BE4030439060506801268E40B0431E79BE
:100AA000C6F300168E40304350601E7906F00306F0
:100AB000032E09D0D0684F000326BE40B0434F003C
:100AC0009E68BE403043D0601E7906F00306022EB9
:100AD00013D1CF0802F1200656F827004E07F70E73
:100AE0000F26BE40B0434F07FF0E1E69BE40304385
:100AF000CF0802F1200646F8270010684F000326B1
:100B0000BE40B0431E7906F003064F00BE4030439E
:100B100010605E6806F44036002E78D000BF404E6C
:100B2000366846F002063E4F3E603E46366806F0A6
:100B30000206009600BF00BF3A4E8F0856F8270005
:100B40008E07370F0F26BE40B043374EB24202D158
:100B500000262EE05BE0354EB24201D1012628E0AE
:100B6000334EB24201D1022623E0324EB24201D1CD
:100B700003261EE0304EB24201D1042619E02F4E6A
:100B8000B24201D1052614E02D4EB24201D1062613
:100B90000FE02C4EB24201D107260AE02A4EB242A3
:100BA00001D1082605E0294EB24201D1092600E014
:100BB0000A268F073F0FBE4030431A4E8F0846F873
:100BC00027004FF0B0463068A0435E6806F48016F8
:100BD00006B120434FF0B04630607068A0435E68B5
:100BE00006F4001606B120434FF0B0467060686806
:100BF000A0435E6806F4003606B1204368602868AA
:100C0000A0435E6806F4803606B120432860491C84
:100C10001E68CE40002E7FF423AFF8BD8000005840
:100C2000F444025808040058000002580004025816
:100C300000080258000C0258001002580014025814
:100C400000180258001C02580020025800240258C4
:100C5000024613690B400BB1012000E000207047F1
:100C60000AB1816101E00B048361704701480068AB
:100C7000000C70470010005C0148006870470000DD
:100C8000000000240348006803490978084401492A
:100C900008607047000000240800002410B50320FD
:100CA00000F0FAFA03F064F910490968C1F303216E
:100CB0000F4A515C01F01F0120FA01F40B48006853
:100CC00000F00F001146085C00F01F0024FA00F04D
:100CD00008490860084804600F2000F00FF808B1C8
:100CE000012010BD00F074FA0020FAE71844025801
:100CF00080EC0008100000240C00002470B50446AD
:100D00001148007808B9012070BD0F4800784FF4F1
:100D10007A71B1FBF0F00D490968B1FBF0F5284696
:100D200003F068FE08B10120EEE7102C07D2002284
:100D30002146501E00F072FA0548046001E00120CF
:100D4000E2E70020E0E70000080000240C00002497
:100D500004000024014609B90120704791F83D00C4
:100D6000022803D0802088660120F6E7042081F85D
:100D70003D000868C06820F001000A68D0600020CB
:100D8000EBE730B5034600240BB9012030BD00BFAE
:100D900093F83C00012801D10220F7E7012083F8F5
:100DA0003C0000BF93F83D00012819D11868006984
:100DB00000F0804090B9186801631868426331B947
:100DC0001868006920F000401D68286109E0186873
:100DD000006940F000401D68286102E0012400E045
:100DE000012400BF002083F83C0000BF2046CDE76F
:100DF000F8B5044600200090744800684FF416517E
:100E0000B0FBF1F6208800F5F860C0F384110120F2
:100E100000FA01F74FF0A4400068384000B9F8BD6F
:100E20002068006800F00100B8B32068C06800F0D6
:100E3000020090B32068C06820F002002168C860FA
:100E40002068856805F0800020B9A06E40F00100A0
:100E5000A06603E0A06E40F00200A06605F40070FA
:100E600018B1A06E40F00400A06605F4807018B1BF
:100E7000A06E40F00800A06605F4806018B1A06E76
:100E800040F01000A06605F4006018B1A06E40F0BC
:100E90002000A0660120216848602068006800F0FA
:100EA000100060B12068C06800F0200038B1102048
:100EB00021684860A06C10B12046A16C884720686A
:100EC000006800F0080060B12068C06800F0100001
:100ED00038B1082021684860E06C10B12046E16C10
:100EE00088472068006800F0040060B12068C0688E
:100EF00000F0080038B1042021684860206D10B16E
:100F00002046216D88472068006800F0020060B329
:100F10002068C06800F0040038B32068C06820F082
:100F20003E002168C86094F83D0004280DD100BF40
:100F3000002084F83C0000BF012084F83D00A06D33
:100F400010B12046A16D884769E7022021684860FA
:100F500000BF002084F83C0000BF012084F83D0061
:100F6000606C10B12046616C8847A06E60B30420AD
:100F700084F83D002068C06820F001002168C86046
:100F800000BF0098401C0090B04200D905E02068E6
:100F9000C06800F001000028F3D100BF00BF0020AE
:100FA00084F83C0000BF2068C06800F0010018B160
:100FB000032084F83D0002E0012084F83D00606DCC
:100FC00010B12046616D884700BF28E70C0000245F
:100FD00070B50446FFF750FE05460CB9012070BD00
:100FE00000BF002084F83C0000BF022084F83D00D0
:100FF0002068C06820F001002168C8600BE0FFF79E
:101000003BFE401B052806D94020A066032084F83B
:101010003D000120E3E72068C06800F001000028DF
:10102000EDD1204603F004FF0020E06520666066F5
:10103000A066012084F83D000020D0E72DE9F843A8
:1010400004460D4616461F46DDF8208014B90120DF
:10105000BDE8F88300BF94F83C00012801D10220CC
:10106000F6E7012084F83C0000BF94F83D00012819
:1010700041D1022084F83D000020A0662068C068AD
:1010800020F001002168C8603B46324629462046D0
:10109000CDF8008003F02EFF2068C06840F0060005
:1010A0002168C860E06C28B12068C06840F010007A
:1010B0002168C860206D28B12068C06840F0080031
:1010C0002168C860A06C28B12068C06840F020008A
:1010D0002168C8602068C06840F001002168C860CD
:1010E0006068B0F1804F0DD12068C06840F4803056
:1010F0002168C86006E000BF002084F83C0000BF03
:101100000220A5E70020A3E74178154A11601449A1
:101110000831096821F00101114A08321160121FDB
:1011200041681160017B0907C27A41EA0261827A53
:1011300041EAC241427B41EA8241827B41EA42412B
:10114000C27B41EA0241427A41EA0221027A41EA43
:10115000420102781143024A0832116070470000D0
:1011600098ED00E000BF00BF00BFBFF35F8F00BF7E
:1011700000BF00BF0548006820F4803003490860C4
:1011800000200249703108607047000024ED00E043
:1011900040F001010D4A11600C497039096841F4B1
:1011A00080310A4A703A116000BF00BF00BFBFF330
:1011B0004F8F00BF00BF00BF00BF00BF00BFBFF325
:1011C0006F8F00BF00BF00BF7047000094ED00E0CC
:1011D00008B500BF0648006840F0020004490860F6
:1011E0000846006800F00200009000BF00BF08BD84
:1011F000F44402580146084600280DDB00BF00BF3A
:1012000000F01F0301229A4043099B0003F1E023F1
:10121000C3F8002100BF00BF00BF70472DE9F05F99
:1012200080460D46164607F013FA074639462A4609
:10123000334601F00700C0F1070ABAF1040F02D9E2
:101240004FF0040A01E0C0F1070AD14600F1040A98
:10125000BAF1070F02D24FF0000A01E0A0F1030A31
:10126000D4464FF0010A0AFA09FAAAF1010A0AEA79
:10127000020A0AFA0CFA4FF0010B0BFA0CFBABF165
:10128000010B0BEA030B4AEA0B042146404607F028
:10129000E7F9BDE8F09F000000BF00F00702064B31
:1012A00019684FF6FF031940044B0B4343EA022130
:1012B000014B196000BF70470CED00E00000FA051B
:1012C000704770477047704770472DE9F0410446FA
:1012D0000D4605F08000802808D105F00F0000EBD6
:1012E000C00104F1140000EB810607E005F00F00D7
:1012F00000EBC00104F5157000EB81063146206853
:1013000006F0C2FF07463846BDE8F0812DE9FE4FE2
:101310000446D4F800B05E46206807F068F800285C
:1013200074D1206807F0A2F808B9BDE8FE8F40F636
:1013300008008059C0F30D20C4F8D404206807F0D9
:1013400095F800F00200022805D12068406900F0FD
:10135000020021684861206807F088F800F010005A
:10136000102845D12068806920F01000216888612C
:10137000DBF8209009F00F0000EBC00104F51570B8
:1013800000EB810AC9F3434002281AD147F6F070F6
:1013900009EA000030B3C9F30A125846DAF80C1013
:1013A00007F069F8C9F30A11DAF80C000844CAF822
:1013B0000C00C9F30A11DAF814000844CAF8140042
:1013C00010E0C9F3434006280CD1082204F29C41E6
:1013D000584607F050F8C9F30A11DAF81400084427
:1013E000CAF814002068806940F010002168886104
:1013F000206807F03BF800F40020B0F5002F7BD107
:101400000025206807F002F8029072E003E30298DA
:1014100000F00100002868D0E9B2206807F019F850
:10142000804608F0010048B1012106F5306000EB6C
:10143000451081602946204603F0F2FE08F00800BE
:10144000082809D1082106F5306000EB45108160BD
:101450002946204603F0B2FE08F01000102805D1FE
:10146000102106F5306000EB4510816008F00200A5
:10147000022824D1DBF8140000F08000802807D176
:1014800040F60400805940F4806140F60400815128
:1014900005EBC50104F5157000EB810A9AF803000D
:1014A000012806D100208AF80300E9B2204600F0A6
:1014B000B5FA022106F5306000EB4510816008F0B6
:1014C0002000202805D1202106F5306000EB4510D2
:1014D000816008F40050B0F5005F06D14FF4005170
:1014E00006F5306000EB451081606D1C02984008E5
:1014F0000290029800288AD1206806F0B7FF00F415
:101500008020B0F5802F7DD1206806F075FF029015
:1015100000259AE0029800F00100002873D0E9B29B
:10152000206806F07DFF804608F00100F0B305F06A
:101530000F0101208840019040F634008159019844
:1015400021EA000040F634018851012106F51060BF
:1015500000EB45108160A079012824D105EBC5017D
:1015600004F1140000EB810005EBC502C16804F131
:10157000140000EB82008068014405EBC50204F111
:10158000140000EB8200C1606DB905EBC50104F1E8
:10159000140000EB8100006928B904F29C4201218B
:1015A000206806F039FEE9B2204600E001E0FFF7CE
:1015B00089FE08F00800082805D1082106F510600A
:1015C00000EB4510816008F01000102805D11021B3
:1015D00006F5106000EB4510816008F040004028DF
:1015E00005D1402106F5106000EB4510816008F040
:1015F000020002281DD12946584606F0BBFE05EB25
:10160000C50101E025E01CE004F1140000EB810AB3
:101610009AF80300012806D100208AF80300E9B2F5
:10162000204600F0FAF9022106F5106000EB4510A3
:10163000816008F08000802803D12946204603F00D
:1016400091FE6D1C029840080290029800287FF4D9
:1016500061AF206806F00AFF00F00040B0F1004FD3
:101660001CD140F60400805920F0010140F604002E
:10167000815194F8CC04012807D1002084F8CC04CF
:1016800000212046FFF71CFE02E0204600F0C8F9CA
:101690002068406900F0004021684861206806F039
:1016A000E5FE00F40060B0F5006F0ED140F60800D2
:1016B000805900F0010010B1204600F0B4F9206814
:1016C000406900F4006021684861206806F0CEFEA1
:1016D00000F00060B0F1006F19D12068406900F09F
:1016E00000602168486194F8CC0468B9012084F84E
:1016F000CC042068406DC0F38300C4F8D0040121FD
:101700002046FFF7DDFD02E0204600F08CF920685E
:1017100006F0ACFE00F48050B0F5805F7ED140F65C
:101720000400805920F0010140F60400815110218D
:10173000206806F01FFE002732E04FF67F3106F5E5
:10174000106000EB4710816006F5106000EB471059
:10175000006820F4001106F5106000EB47100160EE
:101760004FF67F3106F5306000EB4710816006F5DB
:10177000306000EB4710006820F4001106F530607F
:1017800000EB4710016006F5306000EB4710006881
:1017900040F0006106F5306000EB471001607F1CEF
:1017A0002079B842C9D840F61C00805940F0011198
:1017B00040F61C008151E07B70B1D6F8840840F0FF
:1017C0000B01C6F8841840F64400805940F00B0124
:1017D00040F6440081510FE040F61400805942F277
:1017E0002B01084340F614018851081F805940F02E
:1017F0000B014FF401608151D6F8000820F4FE601F
:10180000C6F80008A17904F29C42206806F004FDA5
:101810002068406900F48050216800E000E04861E1
:10182000206806F023FE00F40050B0F5005F17D1E9
:10183000206806F0DDFC206806F0C6FDE07102F0CD
:101840004DFB0090E2792068009906F045FE2046A5
:1018500000F0E5F82068406900F400502168486114
:10186000206806F003FE00F00800082808D1204692
:1018700000F0D7F82068406900F00800216848614E
:10188000206806F0F3FD00F08000802818D1DBF816
:10189000180020F08000CBF8180001250DE005EBC2
:1018A000C50104F5157000EB8100C078012803D153
:1018B000E9B22046FFF709FD6D1C2079A842EED859
:1018C000206806F0D3FD00F48010B0F5801F2DD104
:1018D000012522E006F5106000EB4510D0F80090DD
:1018E00005EBC50104F1140000EB8100007901282B
:1018F00012D109F00040B0F1004F0DD1012105EBEC
:10190000C50204F1140000EB8200C170E8B240F09F
:1019100080012046FFF7D9FC6D1C2079A842D9D858
:101920002068406900F4801021684861206806F052
:101930009DFD00F40010B0F5001F44D1012538E0F2
:1019400006F5306000EB4510D0F8009005EBC501BE
:1019500004F5157000EB81000079012828D109F009
:101960000040B0F1004F23D194F8D40400F00100FE
:10197000C9F3004188421BD1012105EBC50204F5E2
:10198000157000EB8200C170DBF8180040F0800099
:10199000CBF81800DBF8140000F0800040B940F6E6
:1019A0000400805940F4007140F60400815103E0C6
:1019B0006D1C2079A842C3D800BF2068406900F49C
:1019C000001021684861206806F050FD00F080405A
:1019D000B0F1804F08D12046FFF773FC20684069C2
:1019E00000F0804021684861206806F03FFD00F06B
:1019F000040004280FD12068D0F8049009F00400F6
:101A0000042802D12046FFF75FFC2068406840EAC6
:101A100009002168486000BF87E47047704770473D
:101A2000704770477047704770B5044615480068A6
:101A3000C0F3800048B91348006800F00700A042D6
:101A400001D0012070BD0020FCE70E48006820F0A6
:101A5000070020430B490860FFF70EF9054607E031
:101A6000FFF70AF9401BB0F57A7F01D90120E9E7B9
:101A7000044808380068C0F340300028F0D0002047
:101A8000E0E700000C4802580348006840F080700E
:101A900001490860704700000C4802587047000078
:101AA00070B50446002594F8410000F002000028BB
:101AB0003ED000BF002084F8400000BF082084F81A
:101AC00041002068006820F4F81021680860206850
:101AD000006800F0040098B12068006820F004005D
:101AE000216808601348E16B8865E06BFFF732F905
:101AF000F0B1012084F841002046FFF7CFFF17E046
:101B000020688068C0F3401078B102202168C86066
:101B10002068006840F40030216808602068006890
:101B200040F002002168086002E0012084F84100D2
:101B3000284670BD1F5600082DE9F84304460E469E
:101B400015469846FFF798F88146B06900B100BF86
:101B5000F06900B100BF306A00B100BF00BF94F867
:101B60004000012802D10220BDE8F883012084F85A
:101B7000400000BF94F8410001283AD10020606481
:101B8000422084F841004B46002220212046CDF817
:101B9000008003F08FFD074657BB286821688862E4
:101BA000686821684862A8682168C862206800687F
:101BB00020F44000296941F480010843216808604D
:101BC000E868B0624FF000623146204603F026FC20
:101BD0004B46012208212046CDF8008003F06AFD23
:101BE00007462FB908202168C860012084F8410009
:101BF00000E0022700BF002084F8400000BF384604
:101C0000B2E72DE9F84304460E461546FFF734F8CF
:101C10008046B06900B100BFF06900B100BF306A12
:101C200000B100BF00BF94F84000012802D102209B
:101C3000BDE8F883012084F8400000BF94F841001B
:101C400001283DD100206064422084F84100A06C4E
:101C50004346002220210090204603F02BFD07463A
:101C60004FBB286821688862686821684862A86854
:101C70002168C862D5E9040108432168096821F494
:101C8000400108432168086009202168C860E868AD
:101C9000B0624FF000623146204603F0BFFB00BF48
:101CA000002084F8400000BF2068006840F4102045
:101CB000216808600AE000BF002084F8400005E0C9
:101CC000022700BF002084F8400000BF3846AFE77D
:101CD00002490978491C014A117070472B00002401
:101CE0002DE9F84304460D461746FEF7C5FF80462A
:101CF000A86900B100BFE86900B100BF286A00B15F
:101D000000BF00BF94F84000012802D10220BDE8C6
:101D1000F883012084F8400000BF94F841000128B6
:101D200028D100206064022084F84100434600224C
:101D300020212046009703F0BDFC0646DEB90022B4
:101D40002946204603F06AFB686A78B943460122B7
:101D500002212046009703F0ADFC06465EB9022042
:101D60002168C860012084F8410004E0012084F863
:101D7000410000E0022600BF002084F8400000BFC0
:101D80003046C4E7F8B504460D46FEF775FF074632
:101D9000A86900B100BFE86900B100BF286A00B1BE
:101DA00000BF00BF94F84000012801D10220F8BD17
:101DB000012084F8400000BF94F84100012833D18D
:101DC00000206064022084F84100A06C3B460022A1
:101DD00020210090204603F06DFC0646FEB9686A9B
:101DE00010B903202168C86000222946204603F06C
:101DF00015FB686A58B900BF002084F8400000BF96
:101E00002068006840F440302168086012E001203A
:101E100084F8410000BF002084F840000AE000BFC1
:101E2000002084F8400005E0022600BF002084F86E
:101E3000400000BF3046BAE7704770472DE9F041D7
:101E40000446206886682068076806F004000028B9
:101E500048D007F48020002844D0206800F12005F5
:101E600094F8410012281AD112E0E06A48B1606A81
:101E700000782870606A401C6062E06A401EE06280
:101E800006E02068006820F480202168086005E0F2
:101E900020688068C0F380000028E6D11EE094F836
:101EA000410022281AD112E0A06B48B12878216B9A
:101EB0000870206B401C2063A06B401EA06306E0EE
:101EC0002068006820F480202168086005E0206810
:101ED0008068C0F380000028E6D100BF2046FFF7ED
:101EE000ACFFE8E006F0020000287DD007F40030E7
:101EF000002879D002202168C8602068006820F49A
:101F0000E0202168086094F84100122819D1206867
:101F1000006800F0040068B12068006820F0040048
:101F200021680860E06B0068C06820F00100E16B88
:101F30000968C860012084F84100204600F02AFCAE
:101F4000B9E094F84100222832D12068006800F0FE
:101F5000040070B12068006820F004002168086067
:101F6000E06B0068C06820F00100E16B0968C860A0
:101F700017E0206800F120050CE0A06B48B128783C
:101F8000216B0870206B401C2063A06B401EA06377
:101F900000E005E02068806800F47C500028ECD167
:101FA00000BF012084F84100204600F0BFFA82E023
:101FB00094F84100022806D1012084F8410020460F
:101FC000FFF786FE77E094F84100082873D1206877
:101FD000406920F0406021684861012084F8410098
:101FE000606C28B9204600E006E0FFF757FD62E08C
:101FF0002046FFF721FF5EE006F00800B8B107F4C5
:102000000020A0B108202168C8602068006800F4A2
:10201000800040B12068006820F41020216808602A
:10202000012084F84100204600F08AFA43E006F0DF
:10203000010098B307F4803080B301202168C860A4
:102040002068006820F4702021680860606C40F00F
:10205000020060642068006800F00400B8B12068E5
:10206000006820F00400216808601448E16B88656E
:10207000E06BFEF76FFEF0B1606C40F0040060644E
:10208000012084F841002046FFF7D6FE13E001202E
:1020900084F841002046FFF7CFFE0CE0FFE706F092
:1020A000100040B107F4801028B110202168C860EA
:1020B000204600F04DFABDE8F08100001F560008F0
:1020C000F8B50446FEF7D8FD06460CB90120F8BD68
:1020D000206A402800D000BF94F8410038B920465B
:1020E00000F046F841F28831204600F027FA2068D7
:1020F000006820F4F851A068401E41EA00202168E1
:102100000860A06C3346002220210090204603F096
:10211000D1FA054635BB2179E06840EA0160E16902
:102120000843216A0843216809680F4A114008439F
:1021300021680860208A616941EA0040A16908437A
:1021400021684968094A11400843216848602068AD
:10215000006840F0010021680860002060640120F0
:1021600084F841002846B2E72FFFFF00FEF8E0FFA9
:1021700010B5B8B00446142132A8FEF7F7F8C02114
:1021800002A8FEF7F3F84949206888427ED14FF053
:1021900000710020CDE902101020159002A800F077
:1021A00043FD08B1FEF7A4F900BF4148006840F4C0
:1021B00080403F4908600846006800F48040019074
:1021C00000BF00BF00BF3A480C30006840F010006C
:1021D00037490C3108600846006800F01000019093
:1021E00000BF00BF00BF0846006840F00200086062
:1021F0000846006800F00200019000BF00BF00BF69
:102200000846006840F0080008600846006800F0D2
:102210000800019000BF00BF0420329002203390DC
:1022200000203490032035900920369032A92148AF
:10223000FEF710FC042032900220339000203490EE
:10224000032035900920369032A91B48FEF702FC86
:102250004FF46050329002203390002034900320DD
:1022600035900920369032A91448FEF7F3FB402040
:1022700032900220339001203490032035900A20C0
:10228000369032A90C48FEF7E5FB00E00CE0002296
:1022900011465C20FEF7C2FF5C20FEF7ABFF00BFDB
:1022A0000748E063046400BF38B010BD005000521E
:1022B000D44402580010025800040258000C02587E
:1022C000A40000242DE9F84F04460E4617460025C9
:1022D000FEF7D2FC80462068D0F81890206800F104
:1022E000200A00BF94F84000012802D10220BDE876
:1022F000F88F012084F8400000BF94F841000128C5
:102300004AD100206064002E40D0222084F8410091
:1023100020680069401CA06320680069401C60635D
:1023200026632068406920F0406040F080602168AA
:1023300048612068C0F8189013E043460122062146
:102340002046009703F0B6F9054605B10CE09AF86F
:102350000000216B0870206B401C2063A06B401EA6
:10236000A063A06B0028E8D100BF5DB943460122FD
:1023700002212046009703F09DF9054615B9022079
:102380002168C860012084F8410006E0606C40F0DC
:1023900008006064012500E0022500BF002084F8E9
:1023A000400000BF2846A2E72DE9F84304460D4649
:1023B0000026206887692068006900F1010800BFD5
:1023C00094F84000012802D10220BDE8F8830120E2
:1023D00084F8400000BF94F8410001287AD1002021
:1023E0006064002D77D0C4F83880222084F8410042
:1023F00003202168C860A06B606325634948E16BD6
:1024000048644948E16B48650020E16B8865E06BF2
:102410000068006940F203318843E16B0968086194
:10242000E06B006A58B9E06B0068006940F60C4147
:10243000884340F00800E16B0968086124E0E06B24
:10244000006A40280BD1E06B0068006940F60C413F
:10245000884340F48160E16B0968086114E0E06B37
:10246000006A80280BD1E06B0068006940F60C41DF
:10247000884300F60800E16B0968086104E0606CBD
:1024800040F00400606401262068406920F040604C
:1024900040F080602168486120688761206800689A
:1024A00040F48030216808602068006840F0040033
:1024B0002168086001200090636B226802F120010E
:1024C0002A46E06BFEF7BAFD30B900BF002084F861
:1024D000400024E01DE012E02068006820F00400C5
:1024E000216808600126606C40F0040060640120EF
:1024F00084F8410000BF002084F840000FE0606CC9
:1025000040F008006064012600BF002084F840000D
:1025100005E0022600BF002084F8400000BF3046DE
:1025200053E70000895600086156000802490978FF
:10253000491C014A117070472C00002481647047C7
:1025400002490978491C014A117070472E00002485
:1025500070472DE9F84304460E4617460025FEF75E
:102560008BFB8046206800F1200900BF94F84000F2
:10257000012802D10220BDE8F883012084F8400040
:1025800000BF94F84100012845D100206064002E6E
:102590003BD0122084F8410020680069401CE062B2
:1025A00020680069401CA06266622068406920F0D3
:1025B00040602168486113E043460122042120461F
:1025C000009703F077F8054605B10CE0606A0078E3
:1025D00089F80000606A401C6062E06A401EE062A8
:1025E000E06A0028E8D100BF5DB94346012202211C
:1025F0002046009703F05EF8054615B902202168D1
:10260000C860012084F8410006E0606C40F00800DA
:102610006064012500E0022500BF002084F840002E
:1026200000BF2846A7E70000F8B504460D4600267F
:1026300020680069471C00BF94F84000012801D1C0
:102640000220F8BD012084F8400000BF94F841004A
:10265000012874D100206064002D71D0E76212203F
:1026600084F8410003202168C860E06AA0626562C6
:102670002068406920F04060216848614348E16B70
:1026800048644348E16B48650020E16B8865E06B76
:102690000068006940F60C418843E16B09680861F5
:1026A000E06BC06950B9E06B0068006940F203312B
:1026B0008843801CE16B0968086124E0E06BC06915
:1026C00010280BD1E06B0068006940F203318843A9
:1026D00040F48170E16B0968086114E0E06BC06947
:1026E00020280BD1E06B0068006940F20331884379
:1026F00000F20220E16B0968086104E0606C40F0C0
:102700000400606401262068006840F4803021687D
:1027100008602068006840F004002168086001201B
:102720000090A36A216801F120022946E06BFEF7C0
:1027300085FC30B900BF002084F8400024E01DE093
:1027400012E02068006820F004002168086001267B
:10275000606C40F004006064012084F8410000BF18
:10276000002084F840000FE0606C40F008006064D6
:10277000012600BF002084F8400005E0022600BFCB
:10278000002084F8400000BF30465AE79F560008FA
:102790006156000802490978491C014A11707047C6
:1027A0002D00002410B501F099FB05490968C1F31B
:1027B0000211044A515C01F01F01C84010BD000025
:1027C0002044025880EC000870B50146844D2D6805
:1027D00005F00303824D2D68C5F30530804D2D1D96
:1027E0002D68C5F300147E4D14352D68C5F3CC0556
:1027F00015FB04F501EE105AB8EE411AF0EE410A4D
:1028000000286FD023B1012B4ED0022B6BD16BE08F
:10281000734D283D2D68C5F340153DB3704D283DDF
:102820002D68C5F3C1066F4D25FA06F201EE102A98
:10283000F8EE411A01EE100AB8EE411A81EE812A33
:102840009FED691AC0EE811A654D10352D68C5F3EC
:10285000080501EE105AB8EE411A31EE811AF7EE72
:10286000001A31EE211A22EE010A1CE001EE100AD4
:10287000B8EE411ADFED5D1A81EE812A9FED5A1AFA
:10288000C0EE811A564D10352D68C5F3080501EECE
:10289000105AB8EE411A31EE811AF7EE001A31EEF5
:1028A000211A22EE010A5BE001EE100AB8EE411A8D
:1028B000DFED4F1A81EE812A9FED4B1AC0EE811A8F
:1028C000474D10352D68C5F3080501EE105AB8EED6
:1028D000411A31EE811AF7EE001A31EE211A22EE7A
:1028E000010A3DE077E01DE001EE100AB8EE411A62
:1028F0009FED402AC2EE011A9FED3B1A80EE812A1D
:10290000374D10352D68C5F3080501EE105AB8EEA5
:10291000411A32EE011AB7EE002A31EE021A21EE08
:10292000810A1DE001EE100AB8EE411ADFED301AFF
:1029300081EE812A9FED2C1AC0EE811A284D1035A8
:102940002D68C5F3080501EE105AB8EE411A31EEB4
:10295000811AF7EE001A31EE211A22EE010A00BFA9
:1029600000BF1F4D10352D68C5F3462501EE105AE6
:10297000B8EE411AF7EE001A31EE211AC0EE011A34
:10298000BCEEE11A81ED001A154D10352D68C5F326
:10299000064501EE105AB8EE411AF7EE001A31EE74
:1029A000211AC0EE011ABCEEE11A81ED011A0C4D9C
:1029B00010352D68C5F3066501EE105AB8EE411AC0
:1029C000F7EE001A31EE211AC0EE011ABCEEE11A40
:1029D00081ED021A03E000250D604D608D6070BD31
:1029E000284402580090D003000000460024744C94
:1029F0000024744A20BCBE4B70B50146844D2D683E
:102A000005F00303824D2D68C5F30550804D2D1D43
:102A10002D68C5F300247E4D1C352D68C5F3CC050B
:102A200015FB04F501EE105AB8EE411AF0EE410A1A
:102A300000286FD023B1012B4ED0022B6BD16BE05D
:102A4000734D283D2D68C5F340153DB3704D283DAD
:102A50002D68C5F3C1066F4D25FA06F201EE102A66
:102A6000F8EE411A01EE100AB8EE411A81EE812A01
:102A70009FED691AC0EE811A654D18352D68C5F3B2
:102A8000080501EE105AB8EE411A31EE811AF7EE40
:102A9000001A31EE211A22EE010A1CE001EE100AA2
:102AA000B8EE411ADFED5D1A81EE812A9FED5A1AC8
:102AB000C0EE811A564D18352D68C5F3080501EE94
:102AC000105AB8EE411A31EE811AF7EE001A31EEC3
:102AD000211A22EE010A5BE001EE100AB8EE411A5B
:102AE000DFED4F1A81EE812A9FED4B1AC0EE811A5D
:102AF000474D18352D68C5F3080501EE105AB8EE9C
:102B0000411A31EE811AF7EE001A31EE211A22EE47
:102B1000010A3DE077E01DE001EE100AB8EE411A2F
:102B20009FED402AC2EE011A9FED3B1A80EE812AEA
:102B3000374D18352D68C5F3080501EE105AB8EE6B
:102B4000411A32EE011AB7EE002A31EE021A21EED6
:102B5000810A1DE001EE100AB8EE411ADFED301ACD
:102B600081EE812A9FED2C1AC0EE811A284D18356E
:102B70002D68C5F3080501EE105AB8EE411A31EE82
:102B8000811AF7EE001A31EE211A22EE010A00BF77
:102B900000BF1F4D18352D68C5F3462501EE105AAC
:102BA000B8EE411AF7EE001A31EE211AC0EE011A02
:102BB000BCEEE11A81ED001A154D18352D68C5F3EC
:102BC000064501EE105AB8EE411AF7EE001A31EE42
:102BD000211AC0EE011ABCEEE11A81ED011A0C4D6A
:102BE00018352D68C5F3066501EE105AB8EE411A86
:102BF000F7EE001A31EE211AC0EE011ABCEEE11A0E
:102C000081ED021A03E000250D604D608D6070BDFE
:102C1000284402580090D003000000460024744C61
:102C20000024744A20BCBE4B2DE9F0410446002527
:102C3000A8464FF00062D4E900101140002013466E
:102C400059404040014331D1A06E48B1B0F5801FDA
:102C50000DD0B0F5001F11D0B0F5401F16D114E013
:102C6000F948006840F40030F749086010E002219C
:102C700004F1080002F04CFD054609E0022104F1D0
:102C8000280002F0F7FD054602E001E0012500BF43
:102C900000BF55B9EC482430006820F44010A16E04
:102CA0000843E9492431086000E0A8464FF48073E6
:102CB000D4E90010194000205940404001432ED172
:102CC000A06D05281BD2DFE800F0030A11181900D7
:102CD000DD48006840F40030DB49086011E0002165
:102CE00004F1080002F014FD05460AE0002104F199
:102CF000280002F0BFFD054603E002E001E00125E7
:102D000000BF00BF55B9D0482430006820F007004C
:102D1000A16D0843CC492431086000E0A8464FF477
:102D20000073D4E90010194000205940404001438D
:102D300034D1E06D802818D003DC40B140281DD18B
:102D40000CE0C02818D0B0F5807F17D115E0BE4840
:102D5000006840F40030BC49086011E0002104F133
:102D6000080002F0D5FC05460AE0002104F1280025
:102D700002F080FD054603E002E001E0012500BF0E
:102D800000BF55B9B0482430006820F4E070E16D10
:102D90000843AD492431086000E0A8464FF4806341
:102DA000D4E900101940002059404040014339D176
:102DB000D4F8A800B0F5800F1AD004DC50B1B0F5FB
:102DC000001F1ED10DE0B0F5C00F18D0B0F5000FF8
:102DD00017D115E09C48006840F400309A4908601B
:102DE00011E0002104F1080002F092FC05460AE01F
:102DF000002104F1280002F03DFD054603E002E059
:102E000001E0012500BF00BF5DB98F482C3000688C
:102E100020F46000D4F8A81008438B492C310860D6
:102E200000E0A8464FF40062D4E9001011400020F1
:102E3000134659404040014339D1D4F8AC00B0F1B9
:102E4000007F1AD004DC50B1B0F1807F1ED10DE0BC
:102E5000B0F1407F18D0B0F1806F17D115E07A48FB
:102E6000006840F400307849086011E0002104F166
:102E7000080002F04DFC05460AE0002104F128009C
:102E800002F0F8FC054603E002E001E0012500BF86
:102E900000BF5DB96C482C30006820F0E060D4F8C9
:102EA000AC10084368492C31086000E0A8464FF098
:102EB0000073D4E9000118400021584049400843FC
:102EC00028D1E06CA8B1102804D0202809D03028DF
:102ED00010D10DE05C48006840F400305A490860A9
:102EE0000AE0022104F1080002F012FC054603E0AA
:102EF00002E001E0012500BF00BF55B95248203073
:102F0000006820F03000E16C08434F492031086030
:102F100000E0A8464FF48053D4E900101940002087
:102F200059404040014337D1206EB0F5005F1AD0C0
:102F300004DC50B1B0F5805F1ED10DE0B0F5405F0C
:102F400018D0B0F5804F17D115E03F48006840F425
:102F500000303D49086011E0002104F1080002F052
:102F6000D7FB05460AE0002104F1280002F082FCAC
:102F7000054603E002E001E0012500BF00BF55B9AE
:102F800031482430006820F4E040216E08432E4987
:102F90002431086000E0A8464FF40053D4E9001043
:102FA0001940002059404040014335D1606EB0F5D2
:102FB000403F1ED007DC68B1B0F5803F0BD0B0F5C4
:102FC000003F19D10EE0B0F5802F13D0B0F5A02F3F
:102FD00012D110E012E0012104F1080002F098FB88
:102FE00005460BE0012104F1280002F043FC0546F0
:102FF00004E003E002E001E0012500BF00BF55B995
:1030000011482430006820F4E020616E08430E4926
:103010002431086000E0A8464FF48043D4E9000161
:103020001840002158404940084337D1D4F8B00037
:10303000B0F1405F20D009DC78B1B0F1805F0DD0F5
:10304000B0F1005F1BD110E02C440258B0F1804F6A
:1030500013D0B0F1A04F12D110E012E0012104F121
:10306000080002F055FB05460BE0012104F12800A1
:1030700002F000FC054604E003E002E001E0012567
:1030800000BF00BF4DB9FE48006820F0E040D4F812
:10309000B0100843FA49086000E0A8464FF4004227
:1030A000D4E900101140002013465940404001432C
:1030B00029D1206FB0B1B0F1805F03D0B0F1005FD3
:1030C00011D108E0EE482C38006840F40030EC499B
:1030D0002C39086009E0012104F1080002F018FB16
:1030E000054602E001E0012500BF00BF55B9E448F4
:1030F0000838006820F04050216F0843E049083943
:10310000086000E0A8464FF08072D4E9001011403A
:10311000002013465940404001432AD1A06CB8B169
:10312000012804D002280BD0032812D10FE0D44884
:103130002C38006840F40030D1492C3908600AE08E
:10314000022104F1080002F0E3FA054603E002E080
:1031500001E0012500BF00BF55B9C9480C3800681F
:1031600020F00300A16C0843C5490C39086000E059
:10317000A8464FF48002D4E9000110400021134614
:103180005840494008437DD1BE48006840F48070F3
:10319000BC490860FDF770FD064606E0FDF76CFDD2
:1031A000801B642801D9032505E0B648006800F4B7
:1031B00080700028F2D000BF85BBB148183000688D
:1031C00000F44070B4F8B41001F44071884213D098
:1031D000AB481830006820F44077A94818300068E0
:1031E00040F48030A649183108600846006820F491
:1031F0008030086008460760D4F8B400B0F5807FDE
:1032000015D1FDF739FD064609E0FDF735FD801BB8
:1032100041F28831884202D9032507E038E0984816
:1032200018300068C0F340000028EED000BF55BB46
:1032300000BFB4F8B40000F44070B0F5407F0ED188
:103240008F484838006820F47C518F4AD4F8B40085
:10325000104041EA10108A494839086007E0884860
:103260004838006820F47C50854948390860844813
:1032700018300068B4F8B410C1F30B01084380495A
:10328000183101E005E001E0086002E0A84600E036
:10329000A8460122D4E900011040002113465840FD
:1032A0004940084330D1E06F18281AD005DC48B1F6
:1032B000082808D0102817D10CE0202812D0282880
:1032C00012D110E012E0012104F1080002F020FA0E
:1032D00005460BE0012104F1280002F0CBFA054677
:1032E00004E003E002E001E0012500BF00BF55B9A2
:1032F0006348001F006820F03800E16F0843604910
:10330000091F086000E0A8460222D4E9000110402D
:103310000021134658404940084329D1A06F062890
:1033200016D2DFE800F003040B12131412E001219F
:1033300004F1080002F0ECF905460BE0012104F16C
:10334000280002F097FA054604E003E002E001E0FD
:10335000012500BF00BF55B94948001F006820F093
:103360000700A16F08434649091F086000E0A8460E
:103370000423D4E900101940002059404040014383
:1033800029D1D4F89400062816D2DFE800F003040F
:103390000B12131412E0012104F1080002F0B8F935
:1033A00005460BE0012104F1280002F063FA05460E
:1033B00004E003E002E001E0012500BF00BF4DB9D9
:1033C0002F48006820F00700D4F8941008432C49D7
:1033D000086000E0A8462023D4E90001184000213D
:1033E00058404940084337D1D4F89000B0F1405FCD
:1033F0001ED007DC68B1B0F1805F0BD0B0F1005F88
:1034000019D10EE0B0F1804F13D0B0F1A04F12D11E
:1034100010E012E0002104F1080002F079F90546FD
:103420000BE0022104F1280002F024FA054604E032
:1034300003E002E001E0012500BF00BF5DB91048D4
:10344000001F006820F0E040D4F8901008430C49B9
:10345000091F086000E0A8464023D4E90010194085
:1034600000205940404001433CD1D4F89C00B0F5C5
:10347000406F25D00EDCA0B1B0F5806F12D005E012
:103480005844025800480258FFFCFF0FB0F5006F87
:1034900019D10EE0B0F5805F13D0B0F5A05F12D166
:1034A00010E012E0002104F1080002F031F90546B5
:1034B0000BE0022104F1280002F0DCF9054604E0EB
:1034C00003E002E001E0012500BF00BF4DB9FE4866
:1034D000006820F4E050D4F89C100843FA490860D2
:1034E00000E0A8468023D4E900101940002059408C
:1034F0004040014335D1D4F8A000B0F5C04F1ED0F4
:1035000007DC68B1B0F5005F0BD0B0F5804F19D182
:103510000EE0B0F5004F13D0B0F5204F12D110E0FF
:1035200012E0002104F1080002F0F2F805460BE079
:10353000022104F1280002F09DF9054604E003E0B1
:1035400002E001E0012500BF00BF4DB9DE48006880
:1035500020F46040D4F8A0100843DB49086000E084
:10356000A8460823D4E900101940002059404040E3
:10357000014317D1D4F88400B0F5805F07D1022150
:1035800004F1280002F076F908B14FF00108CE48A6
:10359000001F006820F44050D4F884100843CA4942
:1035A000091F08601023D4E9001019400020594079
:1035B0004040014315D1D4F89800B0F5807F07D181
:1035C000022104F1280002F055F908B14FF001087A
:1035D000BD48006820F44070D4F898100843BA49F8
:1035E00008604FF40022D4E9000110400021134686
:1035F00058404940084327D1D4F8A40030B1B0F571
:10360000803F0AD0B0F5003F0FD10DE0002104F15A
:10361000080002F07DF8054609E0022104F12800C7
:1036200002F028F9054602E001E0012500BF00BFD5
:103630004DB9A548006820F44030D4F8A4100843E0
:10364000A149086000E0A8464FF48023D4E90001B6
:10365000184000215840494008432DD1D4F8880033
:10366000B0F5801F06D0B0F5001F0CD0B0F5401F9C
:1036700011D10FE094482C38006840F40030924992
:103680002C39086009E0012104F1280002F0F2F869
:10369000054602E001E0012500BF00BF5DB98A4890
:1036A000001F006820F44010D4F8881008438649B1
:1036B000091F086000E0A8464FF48032D4E90001F9
:1036C00010400021134658404940084325D1206D41
:1036D00018B1B0F5803F10D108E07B482C38006865
:1036E00040F4003078492C39086008E0022104F1E8
:1036F000080002F00DF8054601E0012500BF00BFFB
:1037000055B971480C38006820F48030216D0843A9
:103710006D490C39086000E0A8464FF00052D4E92A
:10372000001011400020134659404040014307D18A
:10373000022104F1280002F09DF808B14FF00108C1
:103740004FF40033D4E900011840002158404940AB
:10375000084329D1D4F88000A0B1B0F5807F06D00D
:10376000B0F5007F0CD0B0F5407F0CD109E0564891
:103770002C38006840F4003053492C39086004E0CC
:1037800003E002E001E0012500BF00BF5DB94E4843
:10379000001F006820F44070D4F8801008434A49A4
:1037A000091F086000E0A8464FF48012D4E9001019
:1037B00011400020134659404040014309D142487E
:1037C0000838006820F00040616F08433E4908391E
:1037D00008604FF08052D4E90010114000201346D9
:1037E0005940404001430AD137484838006820F426
:1037F0008040D4F8B81008433349483908604FF482
:103800000012D4E9001011400020134659404040F6
:10381000014309D12C480838006820F08070E16E1F
:1038200008432949083908604FF08042D4E9001064
:1038300011400020134659404040014311D100BFC0
:1038400021484838006820F400401F494839086082
:1038500008460068D4F8BC1008431B494839086082
:1038600000BF4FF00042D4E9001011400020134681
:1038700059404040014309D113480C38006820F0FA
:103880004050616D084310490C3908604FF4000244
:10389000D4E9001011400020134659404040014334
:1038A0000AD10948001F006820F44000D4F88C10A9
:1038B00008430549091F086001230021606818407A
:1038C00001224940504001E058440258014306D1CA
:1038D00004F1080001F01CFF054605B1A8460222CC
:1038E00000216068104049405040014307D1012148
:1038F00004F1080001F00CFF054605B1A8460423B9
:10390000002061681940042240405140084307D11B
:10391000022104F1080001F0FBFE054605B1A846AE
:1039200008230021606818400822494050400143A4
:1039300006D104F1280001F09DFF054605B1A84617
:10394000102200216068104049405040014307D1D7
:10395000012104F1280001F08DFF054605B1A846BC
:10396000202200206168114040405140084307D1A7
:10397000022104F1280001F07DFF054605B1A846AB
:10398000B8F1000F02D10020BDE8F0810120FBE773
:103990002DE9F04104460D4614B90120BDE8F0813F
:1039A000BD48006800F00F00A8420ED2BA48006877
:1039B00020F00F002843B84908600846006800F06E
:1039C0000F00A84201D00120E8E7207800F00400B1
:1039D00004280ED1B1492069096801F070018842BC
:1039E00007D9AE48006820F0700021690843AB4950
:1039F0000860207800F00800082811D1A749091DA7
:103A00006069096801F07001884209D9A348001D66
:103A1000006820F0700061690843A049091D086032
:103A2000207800F01000102811D19C49091DA069D0
:103A3000096801F4E061884209D99848001D0068CE
:103A400020F4E060A16908439449091D08602078CA
:103A500000F02000202811D190490831E069096860
:103A600001F07001884209D98C480830006820F0C4
:103A70007000E1690843894908310860207800F046
:103A8000020002280ED18549E068096801F00F01A3
:103A9000884207D98148006820F00F00E168084398
:103AA0007E490860207800F00100002850D07B4853
:103AB000006820F47060A168084378490860606875
:103AC000022807D1754818380068C0F34040F8B99B
:103AD000012063E76068032807D170481838006840
:103AE000C0F34060A0B9012058E76068012807D101
:103AF0006A4818380068C0F3002048B901204DE733
:103B0000664818380068C0F3800008B9012045E70E
:103B100062480838006820F00700616808435F4980
:103B200008390860FDF7A8F8064608E0FDF7A4F894
:103B3000801B41F28831884201D903202EE7574883
:103B40000838006800F038006168B0EBC10FEDD1B3
:103B5000207800F0020002280ED15049E068096880
:103B600001F00F01884207D24C48006820F00F0096
:103B7000E1680843494908604748006800F00F00C1
:103B8000A8420ED94448006820F00F00284342495B
:103B900008600846006800F00F00A84201D001202C
:103BA000FCE6207800F0040004280ED13B4920698F
:103BB000096801F07001884207D23848006820F097
:103BC00070002169084335490860207800F008003A
:103BD000082811D13149091D6069096801F0700197
:103BE000884209D22D48001D006820F070006169EC
:103BF00008432A49091D0860207800F010001028A9
:103C000011D12649091DA069096801F4E0618842C3
:103C100009D22248001D006820F4E060A169084331
:103C20001E49091D0860207800F02000202811D1CD
:103C30001A490831E069096801F07001884209D227
:103C400016480830006820F07000E1690843134905
:103C50000831086000F08CF910490968C1F30321AC
:103C60000F4A515C01F01F0120FA01F70B48006870
:103C700000F00F001146085C00F01F0027FA00F06A
:103C8000084908600848076008480068FDF736F8EA
:103C90008046404682E60000002000521844025848
:103CA00080EC0008100000240C0000240400002414
:103CB00010B58048006800F00F0007280ED27D483C
:103CC000006820F00F00C01D7A49086008460068AF
:103CD00000F00F00072801D0012010BDFCF7CCFF39
:103CE00004467548006840F001007349086006E02A
:103CF000FCF7C2FF001B022801D90320EDE76E4844
:103D0000006800F004000028F2D06B48001D006835
:103D100040F080406849091D086000206649103164
:103D20000860664866490860664908606648006839
:103D3000FCF7E4FF08B10120CFE7FCF79DFF044644
:103D400008E0FCF799FF001B41F28831884201D955
:103D50000320C2E758481030006800F038000028FF
:103D6000EFD1FCF789FF04465348006857490840E3
:103D70005149086006E0FCF77FFF001B642801D969
:103D80000320AAE74C48006800F400300028F2D174
:103D9000FCF772FF04464848006820F080704649EE
:103DA000086006E0FCF768FF001B022801D9032029
:103DB00093E74148006800F000700028F2D1FCF75A
:103DC0005BFF04463C48006820F080603A49086088
:103DD00006E0FCF751FF001B022801D903207CE715
:103DE0003548006800F000600028F2D1FCF744FF7D
:103DF00004463148006820F080502F49086006E0F2
:103E0000FCF73AFF001B022801D9032065E72A4886
:103E1000006800F000500028F2D1274918310860EE
:103E2000091D0860091D08602948234928310860D8
:103E30002848091D08602848091D08600020091D40
:103E400008602548091D08600020091D08602248F7
:103E5000091D08600020091D08601748006820F44B
:103E60008020154908600020134960310860401E19
:103E70001149683108601048D030006840F4803043
:103E80000D49D03108600B48006800F00F0007288A
:103E90000ED90848006820F00F00C01D05490860D1
:103EA0000846006800F00F00072801D0012014E741
:103EB000002012E700200052004402580090D00376
:103EC0000C000024100000240400002445EDF6FF3F
:103ED000000202020000FF018002010110B500F0A3
:103EE00047F80D490968C1F303210C4A515C01F000
:103EF0001F0120FA01F40848006800F00F00114685
:103F0000085C00F01F0024FA00F00549086005482D
:103F100004600846006810BD1844025880EC000890
:103F2000100000240C00002400B5FFF7D7FF05495E
:103F30000968C1F30211044A515C01F01F01C84035
:103F400000BD00001C44025880EC000800B5FFF7DB
:103F5000C5FF05490968C1F30221044A515C01F01B
:103F60001F01C84000BD00001C44025880EC00083E
:103F7000F0B5824E366806F0380636B1082E15D0F8
:103F8000102E15D0182E7DD114E07C4E103E3668D0
:103F9000C6F3401646B1794E103E3668C6F3C107E7
:103FA000774E26FA07F000E07548E5E07548E3E053
:103FB0007548E1E0714E1836366806F003046F4E1E
:103FC00018363668C6F305116C4E1C36366806F096
:103FD00001056A4E24363668C6F3CC0616FB05F694
:103FE00001EE106AB8EE410A002971D024B1012C0B
:103FF00050D0022C6DD16DE0604E103E3668C6F395
:1040000040163EB35D4E103E3668C6F3C1075C4EA7
:1040100026FA07F301EE103AF8EE411A01EE101AF3
:10402000B8EE411A81EE812A9FED581AC0EE011AAE
:10403000524E20363668C6F3080601EE106AB8EE16
:10404000411A31EE811AF7EE001A31EE211A62EEB2
:10405000010A1EE001EE101AB8EE411ADFED4C1A0B
:1040600081EE812A9FED491AC0EE011A434E203697
:104070003668C6F3080601EE106AB8EE411A31EE52
:10408000811A00E076E0F7EE001A31EE211A62EEB6
:10409000010A5BE001EE101AB8EE411A9FED3D2ACD
:1040A000C2EE011A9FED391A80EE012A334E2036F6
:1040B0003668C6F3080601EE106AB8EE411A32EE11
:1040C000011AB7EE002A31EE021A61EE810A3DE0D4
:1040D0004EE01DE001EE101AB8EE411ADFED2E1A87
:1040E00081EE812A9FED291AC0EE011A234E203657
:1040F0003668C6F3080601EE106AB8EE411A31EED2
:10410000811AF7EE001A31EE211A62EE010A1DE063
:1041100001EE101AB8EE411A9FED1E2AC2EE011AE6
:104120009FED1A1A80EE012A144E20363668C6F327
:10413000080601EE106AB8EE411A32EE011AB7EE27
:10414000002A31EE021A61EE810A00BF00BF0B4E59
:1041500020363668C6F34626721C01EE102AB8EEE9
:10416000411AC0EE811ABCEEE11A11EE100A00E00D
:10417000002001E0034800BF00BFF0BD104402581A
:104180000090D00300093D0040787D01000000460A
:104190000024744C0024744A20BCBE4B2DE9F04727
:1041A000044614B90120BDE8F087207800F0010032
:1041B000002870D0FA48006800F03808F848183035
:1041C000D0F80090B8F1100F06D0B8F1180F0FD149
:1041D00009F0030002280BD1F14810380068C0F341
:1041E000404000286AD06068002867D10120DAE7E3
:1041F00000BF6068B0F5803F08D1E948103800681A
:1042000040F48030E649103908602EE0606868B9F3
:10421000E3481038006820F48030E1491039086024
:104220000846006820F4802008601EE06068B0F551
:10423000A02F0DD1DA481038006840F48020D8490A
:10424000103908600846006840F4803008600CE0CF
:10425000D3481038006820F48030D1491039086004
:104260000846006820F48020086000BF606898B1AC
:10427000FCF702FD054606E0FCF7FEFC401B642847
:1042800001D903208FE7C64810380068C0F34040CA
:104290000028F1D012E012E0FCF7EEFC054606E043
:1042A000FCF7EAFC401B642801D903207BE7BC48EB
:1042B00010380068C0F340400028F1D100BF2078DA
:1042C00000F00200022874D1B548006800F03808F8
:1042D000B3481830D0F80090B8F1000F05D0B8F10D
:1042E000180F56D109F00300D0BBAD481038006854
:1042F000C0F3800018B1E06808B9012053E7A8486E
:104300001038006820F01900E1680843A44910390A
:104310000860FCF7B1FC054606E0FCF7ADFC401B6D
:10432000022801D903203EE79D4810380068C0F3F9
:1043300080000028F1D000BFFCF798FC41F2030197
:1043400088421AD8206940280BD195480C3800685B
:1043500020F47C3040F4003091490C39086017E0BB
:1043600017E08F480C38006820F47C30216940EA5F
:1043700001308B490C3908600AE089480C38006824
:1043800020F0FE40217C40EA016085490C3908603C
:1043900066E0E06888B382481038006820F01900B1
:1043A000E16808437E4910390860FCF765FC054662
:1043B00007E056E0FCF760FC401B022801D903200F
:1043C000F1E6774810380068C0F380000028F1D08B
:1043D00000BFFCF74BFC41F2030188421AD8206968
:1043E00040280BD16E480C38006820F47C3040F433
:1043F00000306B490C39086017E017E068480C384A
:10440000006820F47C30216940EA013064490C39AD
:1044100008600AE062480C38006820F0FE40217C09
:1044200040EA01605E490C39086019E05C481038C8
:10443000006820F001005A4910390860FCF71CFCA4
:10444000054606E0FCF718FC401B022801D90320B2
:10445000A9E6534810380068C0F380000028F1D165
:1044600000BF207800F0100010287CD14C48006874
:1044700000F038084A481830D0F80090B8F1080F1A
:1044800006D0B8F1180F3DD109F00300012839D149
:10449000434810380068C0F3002020B1E06980284C
:1044A00001D001207FE600BFFCF7E0FB41F20301F1
:1044B00088421AD8206A20280AD139480C38006866
:1044C00020F0F84040F0804035490C39086018E091
:1044D00033480C38006820F0F84094F8201040EA87
:1044E00081602F490C3908600BE02D48001F0068DF
:1044F00020F07C5094F8201040EA01602849091F00
:10450000086066E0E06978B325481038006840F03C
:104510008000234910390860FCF7AEFB054606E031
:10452000FCF7AAFB401B022801D903203BE61C48EC
:1045300010380068C0F300200028F1D000BFFCF75D
:1045400095FB41F2030188421CD8206A20280CD137
:1045500013480C38006820F0F84040F080401049C3
:104560000C3908601AE035E01CE00D480C38006892
:1045700020F0F84094F8201040EA816008490C3996
:1045800008600BE00648001F006820F07C5094F89B
:10459000201040EA01600249091F086019E000008C
:1045A00010440258FA48006820F08000F84908607A
:1045B000FCF762FB054606E0FCF75EFB401B0228A9
:1045C00001D90320EFE5F2480068C0F3002000287D
:1045D000F2D100BF207800F00800082836D16069C9
:1045E000D0B1EB487430006840F00100E849743104
:1045F0000860FCF741FB054606E0FCF73DFB401B6D
:10460000022801D90320CEE5E14874300068C0F3E8
:1046100040000028F1D019E0DD487430006820F037
:104620000100DB4974310860FCF726FB054606E013
:10463000FCF722FB401B022801D90320B3E5D44834
:1046400074300068C0F340000028F1D1207800F0F9
:104650002000202830D1A069B8B1CD48006840F4CE
:104660008050CB490860FCF707FB054606E0FCF7E5
:1046700003FB401B022801D9032094E5C4480068CD
:10468000C0F340300028F2D016E0C148006820F4A2
:104690008050BF490860FCF7EFFA054606E0FCF7DA
:1046A000EBFA401B022801D903207CE5B8480068DA
:1046B000C0F340300028F2D1207800F00400042834
:1046C0007DD1B448006840F48070B2490860FCF7BE
:1046D000D3FA054606E0FCF7CFFA401B642801D95F
:1046E000032060E5AB48006800F480700028F2D039
:1046F00000BFA068012808D1A5487030006840F0CC
:104700000100A349703108602DE0A06868B9A04895
:104710007030006820F001009D4970310860084643
:10472000006820F0040008601DE0A06805280DD195
:1047300097487030006840F0040095497031086077
:104740000846006840F0010008600CE090487030B6
:10475000006820F001008E4970310860084600684A
:1047600020F00400086000BFA068A0B1FCF784FA44
:10477000054608E0FCF780FA401B41F28831884288
:1047800001D903200FE5824870300068C0F3400073
:104790000028EFD013E0FCF76FFA054608E0FCF7BD
:1047A0006BFA401B41F28831884201D90320FAE4B8
:1047B000774870300068C0F340000028EFD1606A8D
:1047C00000287DD072481030006800F038001828AA
:1047D00077D0606A022875D16D48006820F080703B
:1047E0006B490860FCF748FA054606E0FCF744FA16
:1047F000401B022801D90320D5E465480068C0F3B6
:1048000040600028F2D100BFD4E90A1041EA00104C
:104810005F492831096840F2F332914308435C490B
:1048200028310860208E401EC0F30800616B491ECD
:104830004FF47E4202EA41210843218F491ED201F2
:1048400002EA014108433C21095D491E120202EAC5
:10485000016108434E493031086000BF081F0068FD
:1048600020F00100091F08604948343000684FF605
:10487000F8718843A16C40EAC100454934310860B1
:1048800043482C30006820F00C00216C084340495C
:104890002C3108600846006820F00200616C084373
:1048A0003B492C3108600846006840F480300860BD
:1048B0000846006840F4003008600846006802E0DE
:1048C00093E038E01FE040F480200860084600686C
:1048D00040F0010008602E48006840F080702C49CC
:1048E0000860FCF7C9F9054606E0FCF7C5F9401B6E
:1048F000022801D9032056E425480068C0F340602F
:104900000028F2D071E02248006820F08070204931
:104910000860FCF7B1F9054606E0FCF7ADF9401B6D
:10492000022801D903203EE419480068C0F3406022
:104930000028F2D159E01648283007681448303072
:104940000668606A012821D007F00301A06A81424D
:104950001CD1C7F30511E06A884217D1C6F30801DC
:10496000206B401E814211D1606B401EC6F3462170
:1049700088420BD1A06B401EC6F30641884205D188
:10498000E06B401EC6F30661884205D001200AE4B0
:10499000004402580048025815480068C0F3CC078C
:1049A000A06CB84221D012480838006820F00100FD
:1049B0000F4908390860FCF75FF9054600BFFCF7AE
:1049C0005BF9401BFBD00A4800684FF6F87188433A
:1049D000A16C40EAC1000649086005480838006833
:1049E00040F0010002490839086000204AE4000054
:1049F0003444025870B504462546681EB0F1807FE5
:104A000001D301200FE0681E4FF0E02148610F2123
:104A10004FF0FF3003F024FE00204FF0E0218861CA
:104A200007200861002070BD014600BF91F8840096
:104A3000012801D102207047012081F8840000BFC5
:104A40002420C1F88800086802680868006820F01F
:104A500001000B68186022F00052002048660868C8
:104A600002602020C1F8880000BF002081F8840087
:104A700000BF00BFDFE770B504460D4600BF94F8E5
:104A80008400012801D1022070BD012084F8840037
:104A900000BF2420C4F888002068066820680068E9
:104AA00020F00100216808602068806820F06060C4
:104AB000284321688860204602F0C0FB2068066019
:104AC0002020C4F8880000BF002084F8840000BFC4
:104AD00000BFD9E770B504460D4600BF94F88400C6
:104AE000012801D1022070BD012084F8840000BF9C
:104AF0002420C4F88800206806682068006820F038
:104B00000100216808602068806820F06040284328
:104B100021688860204602F091FB20680660202012
:104B2000C4F8880000BF002084F8840000BF00BFE4
:104B3000D9E710B504460CB9012010BDA06900B139
:104B400000E000BFD4F8880028B9002084F8840071
:104B5000204600F02BF82420C4F888002068006864
:104B600020F0010021680860A06A10B1204602F020
:104B700091FB204602F0B6FC012800D1DDE7206859
:104B8000406820F49040216848602068806820F0E8
:104B90002A00216888602068006840F001002168D0
:104BA0000860204602F0F2FBC7E7000010B5B8B07D
:104BB0000446142132A8FBF7D9FBC02102A8FBF759
:104BC000D5FB1E492068884236D101210020CDE95D
:104BD0000210219002A8FEF727F808B1FBF788FC25
:104BE00000BF1748006840F01000154908600846EB
:104BF000006800F01000019000BF00BF00BF104827
:104C00001038006840F001000D491039086008466E
:104C1000006800F00100019000BF00BF4FF4C060C9
:104C20003290022033900020349035900720369047
:104C300032A90448FBF70EFF38B010BD0010014048
:104C4000F0440258000002582DE9F84F04460E4681
:104C500017469A46D4F88C0020287CD106B117B9A3
:104C60000120BDE8F88F00205C34606322202063BF
:104C700000202061FCF700F88346278067805C3CB9
:104C800000BFA068B0F5805F0AD1206920B940F26A
:104C9000FF10A4F8600020E0FF20A4F860001CE0F2
:104CA000A06848B9206918B9FF20A4F8600014E092
:104CB0007F20A4F8600010E0A068B0F1805F09D107
:104CC000206918B97F20A4F8600006E03F20A4F80E
:104CD000600002E00020A4F8600000BFB4F860901B
:104CE000A068B0F5805F04D1206910B90025B046F6
:104CF00002E035464FF0000823E05B460022202109
:104D00002046CDF800A002F0B3FE20B12020C4F868
:104D10008C000320A5E745B92068406A00EA090035
:104D2000A8F8000008F1020806E02068406A09F0CF
:104D3000FF01084028706D1CB4F85E00401EA4F806
:104D40005E00B4F85E000028D7D12020C4F88C00A3
:104D5000002086E7FFE7022083E72DE9F84F0446AD
:104D60000E4617469946D4F88800202854D106B13B
:104D700017B90120BDE8F88F00205434E0632120EA
:104D80006063FBF779FF824627806780543CA06808
:104D9000B0F5805F04D1206910B90025B04602E06B
:104DA00035464FF0000820E053460022802120467F
:104DB000CDF8009002F05CFE20B12020C4F88800FD
:104DC0000320D7E745B9B8F80000C0F30800216810
:104DD000886208F1020803E02878216888626D1C67
:104DE000B4F85600401EA4F85600B4F85600002847
:104DF000DAD15346002240212046CDF8009002F03F
:104E000037FE20B12020C4F888000320B2E720201C
:104E1000C4F888000020ADE70220ABE700BFFEE742
:104E200010B50248FBF7E4FF10BD0000A400002409
:104E3000D0E903231A430368DA60D0E905231A4353
:104E4000C3691A43036A1A43436A1A43C36A1A437B
:104E5000036B1A43038D5B1E42EA834283681A4345
:104E600003681A614268B2F1804F05D10268126985
:104E700042F0404203681A61002203685A61426BA3
:104E8000002A0BDA0268526942F4802203685A61F0
:104E9000426B51428AB203681A6203E0828E92B278
:104EA00003681A62826B002A0EDA0268526942F4C1
:104EB000002203685A61826B51420268126A42EA18
:104EC000014203681A6206E00268136A028F43EA2D
:104ED000024203681A624268B2F1804F03D002793D
:104EE00003689A6202E0002203689A620022036863
:104EF0005A627047F0B50C46059D0668766963F303
:104F0000100607687E616F1E0668766967F31F5694
:104F100007687E611F2607687E600668F261066882
:104F2000B46104F07F41B1F1005F00D031B906688F
:104F3000B66A46F480360768BE6205E00668B66A5F
:104F400026F480360768BE6202F07F41B1F1005F4F
:104F500000D031B90668B66A46F400360768BE620A
:104F600005E00668B66A26F400360768BE62076880
:104F7000C66D7E62F0BD000000B587B0142102A8A6
:104F8000FBF7F4F900BF3548006840F010003349E2
:104F900008600846006800F01000019000BF00BFE4
:104FA00000BF0846006840F08000086008460068BE
:104FB00000F08000019000BF00BF00BF08460068FD
:104FC00040F0040008600846006800F0040001900A
:104FD00000BF00BF00BF0846006840F00100086045
:104FE0000846006800F00100019000BF00BF00BF4C
:104FF0000846006840F0020008600846006800F0BB
:105000000200019000BF00BF00BF0846006840F0EA
:10501000080008600846006800F00800019000BF22
:1050200000BF012211460E48FBF71AFE0120029034
:105030000390002004900220059002A90848FBF785
:1050400009FD01200290002003900220049002A993
:105050000448FBF7FFFC07B000BD0000E044025825
:10506000000802580000025808B500BF1F48006839
:1050700040F001001D4908600846006800F001008A
:10508000009000BF00BF1A481A4908601620486007
:105090000021184881604021C16000210161022186
:1050A0004161082181610021C16101624FF00071FD
:1050B0004162802181620021C16201634163816399
:1050C000FBF786FF08B1FBF713FA002211460948E7
:1050D000FBF757FE08B1FBF70BFA002211467A20C6
:1050E000FCF79CF87A20FCF785F808BDD4440258F8
:1050F00080000052A400002410B50C480C49086040
:105100000120486020210A4881601021C1601821D7
:1051100001614FF48071416100218161C1610162CF
:10512000FCF7CEFF08B1FBF7E3F910BD00500052C9
:105130001001002410B51848184908604FF4E130F8
:105140004860002115488160C16001610C21416106
:1051500000218161C1610162416200200F498862C2
:105160000846FFF7E6FC08B1FBF7C2F900210B483F
:10517000FFF7B0FC08B1FBF7BBF900210748FFF7C8
:105180007AFC08B1FBF7B4F90448FFF74DFC08B10D
:10519000FBF7AEF910BD0000001001405C010024D7
:1051A00000BFFEE700BFFEE710B5002002F0B6FC2E
:1051B0000148FCF7ABF810BDF00100242DE9F047E1
:1051C00004460D4626683746D6F8408007F530601D
:1051D00000EB4510D0F80890104880450BD909F431
:1051E0000040B0F5004F06D14FF4004107F53060A4
:1051F00000EB451081602046FCF714FC0748804511
:1052000008D9A079012805D104F29C420121206827
:1052100003F002F80020BDE8F08700000A30544F88
:105220002DE9F04705460C46D5F800904E46D9F8D2
:1052300040A006F5306000EB4410D0F80880A87953
:10524000012855D108F0080008280FD143488245AD
:105250000BD908F40040B0F5004F7BD14FF400416A
:1052600006F5306000EB4410816073E008F0200028
:10527000202806D1202106F5306000EB4410816023
:1052800068E008F02800002864D1344882450CD931
:1052900008F40040B0F5004F07D14FF4004106F587
:1052A000306000EB4410816054E004EBC40105F56C
:1052B000157000EB810706F5306000EB4410396A89
:1052C0000069C0F31200081A786164B9386930B90E
:1052D00005F29C420121286802F09EFF03E07969F3
:1052E000F8680844F860E1B22846FBF7ECFF31E0CB
:1052F0001B4882451BD108F40040B0F5004F07D190
:105300004FF4004106F5306000EB4410816021E06D
:1053100008F02000202805D1202106F5306000EBA0
:1053200044108160E1B22846FBF7CDFF12E06CB972
:1053300004EBC40105F5157000EB8100006928B984
:1053400005F29C420021286802F066FFE1B228467F
:10535000FBF7B9FF0020BDE8F08700000A30544F8A
:105360000A31544F2DE9F84F07460E46D7F8009002
:10537000C84606EBC60107F1140000EB8104D4E92E
:105380000410884202D90120BDE8F88FD4E9040155
:10539000451AA068A84200D2A568E81C4FEA900A06
:1053A00017E0D4E90401451AA068A84200D2A56814
:1053B000E81C4FEA900AB879ABB2F2B200904846C6
:1053C000E16803F0FDF8E0682844E0606069284483
:1053D000606108F5106000EB4610806980B25045AE
:1053E00006D3D4E90410884202D220690028D8D11B
:1053F000D4E9040188420ED806F00F01012000FA1A
:1054000001FB40F6340050F8080020EA0B0040F69B
:10541000340141F808000020B6E7704710B54B6A28
:1054200033B1B2F1406F03D08B6A5B1E0468236115
:105430008B69002B7DD00B6AF3B38B680468E36142
:10544000CB69FBB1D1E90B3423434C6B23434C6A4A
:1054500023438C8A43EA84430C6923430C6A234325
:10546000CC682343CC6923438C6923430C682343D2
:10547000134304686361B2F1406F02D04B68046863
:10548000A361CBE0D1E90B3423434C6B23434C6A3B
:1054900023438C8A43EA84430C6923430C6A2343E5
:1054A000CC6923438C6923430C682343134304686A
:1054B00063610023046800E001E0A361AEE0CB6912
:1054C000EBB1D1E90B3423434C6B23434C6A2343A8
:1054D0008C8A43EA84430C6A2343CC682343CC6917
:1054E00023438C6923430C6823431343046863619B
:1054F000B2F1406FC5D04B680468A3618EE0D1E97A
:105500000B3423434C6B23434C6A23438C8A43EA7A
:1055100084430C6A2343CC6923438C6923430C687E
:10552000234313430468636100230468A36175E0A7
:10553000FFE70B6ADBB38B680468E361CB69EBB10F
:10554000D1E90B3423434C6B23434C6A23438C8AAD
:1055500043EA84430C6923430C6A2343CC68234306
:10556000CC6923438C692343134304686361B2F11C
:10557000406F53D04B680468A3614FE0D1E90B340E
:1055800023434C6B23434C6A23438C8A43EA844372
:105590000C6923430C6A2343CC6923438C6923435E
:1055A00013430468636100230468A36136E0FFE7E6
:1055B000CB69DBB1D1E90B3423434C6B23434C6AF9
:1055C00023438C8A43EA84430C6A2343CC682343F5
:1055D000CC6923438C692343134304686361B2F1AC
:1055E000406F1BD04B680468A36117E04B6AABB1F6
:1055F000D1E90B3423434C6B23434C6A23438C8AFD
:1056000043EA84430C6A2343CC6923438C692343D4
:1056100013430468636100230468A36110BD70B57F
:1056200005462C6C0020A063E06294F84100082835
:105630000FD102202168C8602068006840F4003063
:10564000216808602068006840F002002168086056
:1056500005E0012084F841002046FCF7EDFB70BD19
:1056600070B505462C6C0020A063E062606C40F0D1
:10567000040060642068006820F00400216808606D
:105680002046FCF70DFA70BD0146086C00228263CB
:105690000268126842F4003203681A6070470146DB
:1056A000086C0022C2620268126842F40032036889
:1056B0001A6070472DE9F04104460E461746984699
:1056C000069D12E0681C80B1FBF7D6FAA0EB08003B
:1056D000A84200D84DB9042084F84100606C40F025
:1056E000010060640120BDE8F081206880683040DE
:1056F00008B1012000E00020B842E3D10020F2E729
:1057000010B50248FCF79AFB10BD00001001002400
:105710002DE9F04104460E4600275548006800F088
:105720000300032802D10120BDE8F0815048283849
:10573000006820F080604E4928390860FBF79CFA29
:10574000054606E0FBF798FA401B022801D9032022
:10575000EAE7474828380068C0F3C0600028F1D164
:1057600000BF4348006820F47C30216840EA0130E3
:105770003F490860A088401EC0F30800A168491E88
:105780004FF47E4202EA41210843A189491ED20119
:1057900002EA01410843217C491E120202EA01612A
:1057A000084333491031086000BF3148001D0068CC
:1057B00020F0C000616908432D49091D08600846B2
:1057C000006820F02000A16908432949091D0860EC
:1057D0000846006820F01000086025481430006872
:1057E0004FF6F8718843E16940EAC100204914315D
:1057F00008601F48001D006840F010001C49091D8A
:1058000008602EB90846006840F40020086012E0E5
:10581000012E08D11648001D006840F4801014497C
:10582000091D086007E01248001D006840F40010E0
:105830000F49091D08600E482838006840F0806054
:105840000B4928390860FBF717FA054606E0FBF715
:1058500013FA401B022801D9032065E704482838C1
:105860000068C0F3C0600028F1D038465CE7000053
:10587000284402582DE9F04104460E4600275548B9
:10588000006800F00300032802D10120BDE8F08188
:1058900050482838006820F080504E492839086068
:1058A000FBF7EAF9054606E0FBF7E6F9401B02289C
:1058B00001D90320EAE7474828380068C0F3407060
:1058C0000028F1D100BF4348006820F07C70218897
:1058D00040EA01503F490860A088401EC0F308001C
:1058E000A168491E4FF47E4202EA41210843A18982
:1058F000491ED20102EA01410843217C491E1202DD
:1059000002EA0161084333491831086000BF314899
:10591000001D006820F44060616908432D49091D9D
:1059200008600846006820F40070A169084329490E
:10593000091D08600846006820F48070086025484A
:105940001C3000684FF6F8718843E16940EAC100F5
:1059500020491C3108601F48001D006840F4807019
:105960001C49091D08602EB90846006840F48000F3
:10597000086012E0012E08D11648001D006840F4AE
:1059800000001449091D086007E01248001D006866
:1059900040F080700F49091D08600E4828380068E3
:1059A00040F080500B4928390860FBF765F905463F
:1059B00006E0FBF761F9401B022801D9032065E7E7
:1059C000044828380068C0F340700028F1D03846F9
:1059D0005CE70000284402587CB504460D4604EB01
:1059E000440000EBC4108B4901EB4010483001909B
:1059F0000020009000261F2D0ED000BF86A002F0D0
:105A000003FE88A002F000FE00BF4FF4A421204650
:105A100000F02AF900207CBD04EB440000EBC41028
:105A20007C4901EB4010816804EB440000EBC4109A
:105A3000784A02EB4010816204EB440000EBC41092
:105A4000114601EB4010C16804EB440000EBC410A8
:105A500002EB4010C16204EB440000EBC41011469D
:105A600001EB401040687549884212D104EB4400B4
:105A700000EBC410114601EB4010807C012808DBCC
:105A800004EB440000EBC41001EB4010807C1028B4
:105A900006DD4FF4A421204600F0E6F80020BAE726
:105AA00004EB440000EBC4105A4901EB4010C07CE9
:105AB000252857D00FDC1A283FD005DCD0B10328A9
:105AC0001FD0122874D123E01B2828D01E282DD0E7
:105AD00023286DD13FE05A2836D006DC282848D04C
